{
  "contractName": "MainCompetition",
  "abi": [
    {
      "anonymous": false,
      "inputs": [
        {
          "indexed": false,
          "internalType": "uint256",
          "name": "CID",
          "type": "uint256"
        },
        {
          "indexed": false,
          "internalType": "string",
          "name": "name",
          "type": "string"
        }
      ],
      "name": "CompetitionCreated",
      "type": "event"
    },
    {
      "anonymous": false,
      "inputs": [
        {
          "indexed": true,
          "internalType": "address",
          "name": "previousOwner",
          "type": "address"
        },
        {
          "indexed": true,
          "internalType": "address",
          "name": "newOwner",
          "type": "address"
        }
      ],
      "name": "OwnershipTransferred",
      "type": "event"
    },
    {
      "constant": true,
      "inputs": [
        {
          "internalType": "uint256",
          "name": "",
          "type": "uint256"
        }
      ],
      "name": "CIDToCompetition",
      "outputs": [
        {
          "internalType": "uint256",
          "name": "CID",
          "type": "uint256"
        },
        {
          "internalType": "string",
          "name": "name",
          "type": "string"
        },
        {
          "internalType": "uint256",
          "name": "totalPrize",
          "type": "uint256"
        },
        {
          "internalType": "address",
          "name": "admin",
          "type": "address"
        },
        {
          "internalType": "bool",
          "name": "isOpen",
          "type": "bool"
        },
        {
          "internalType": "uint256",
          "name": "fee",
          "type": "uint256"
        }
      ],
      "payable": false,
      "stateMutability": "view",
      "type": "function"
    },
    {
      "constant": true,
      "inputs": [],
      "name": "_owner",
      "outputs": [
        {
          "internalType": "address",
          "name": "",
          "type": "address"
        }
      ],
      "payable": false,
      "stateMutability": "view",
      "type": "function"
    },
    {
      "constant": true,
      "inputs": [
        {
          "internalType": "address",
          "name": "",
          "type": "address"
        }
      ],
      "name": "addressToUserType",
      "outputs": [
        {
          "internalType": "enum MainCompetition.userType",
          "name": "",
          "type": "uint8"
        }
      ],
      "payable": false,
      "stateMutability": "view",
      "type": "function"
    },
    {
      "constant": true,
      "inputs": [
        {
          "internalType": "uint256",
          "name": "",
          "type": "uint256"
        }
      ],
      "name": "adminOfCID",
      "outputs": [
        {
          "internalType": "address",
          "name": "",
          "type": "address"
        }
      ],
      "payable": false,
      "stateMutability": "view",
      "type": "function"
    },
    {
      "constant": true,
      "inputs": [],
      "name": "isOwner",
      "outputs": [
        {
          "internalType": "bool",
          "name": "",
          "type": "bool"
        }
      ],
      "payable": false,
      "stateMutability": "view",
      "type": "function"
    },
    {
      "constant": true,
      "inputs": [],
      "name": "owner",
      "outputs": [
        {
          "internalType": "address",
          "name": "",
          "type": "address"
        }
      ],
      "payable": false,
      "stateMutability": "view",
      "type": "function"
    },
    {
      "constant": false,
      "inputs": [],
      "name": "renounceOwnership",
      "outputs": [],
      "payable": false,
      "stateMutability": "nonpayable",
      "type": "function"
    },
    {
      "constant": false,
      "inputs": [
        {
          "internalType": "address",
          "name": "newOwner",
          "type": "address"
        }
      ],
      "name": "transferOwnership",
      "outputs": [],
      "payable": false,
      "stateMutability": "nonpayable",
      "type": "function"
    },
    {
      "constant": false,
      "inputs": [
        {
          "internalType": "string",
          "name": "_name",
          "type": "string"
        },
        {
          "internalType": "uint256",
          "name": "_totalPrize",
          "type": "uint256"
        },
        {
          "internalType": "uint256",
          "name": "_fee",
          "type": "uint256"
        }
      ],
      "name": "createCompetition",
      "outputs": [],
      "payable": true,
      "stateMutability": "payable",
      "type": "function"
    },
    {
      "constant": false,
      "inputs": [
        {
          "internalType": "uint256",
          "name": "_CID",
          "type": "uint256"
        }
      ],
      "name": "endCompetition",
      "outputs": [],
      "payable": false,
      "stateMutability": "nonpayable",
      "type": "function"
    },
    {
      "constant": false,
      "inputs": [
        {
          "internalType": "uint256",
          "name": "_CID",
          "type": "uint256"
        },
        {
          "internalType": "address",
          "name": "_winnerAddress",
          "type": "address"
        }
      ],
      "name": "chooseWinner",
      "outputs": [],
      "payable": false,
      "stateMutability": "nonpayable",
      "type": "function"
    },
    {
      "constant": false,
      "inputs": [
        {
          "internalType": "uint256",
          "name": "_CID",
          "type": "uint256"
        }
      ],
      "name": "joinCompetition",
      "outputs": [],
      "payable": true,
      "stateMutability": "payable",
      "type": "function"
    }
  ],
  "bytecode": "0x6080604052336000806101000a81548173ffffffffffffffffffffffffffffffffffffffff021916908373ffffffffffffffffffffffffffffffffffffffff1602179055506000809054906101000a900473ffffffffffffffffffffffffffffffffffffffff1673ffffffffffffffffffffffffffffffffffffffff16600073ffffffffffffffffffffffffffffffffffffffff167f8be0079c531659141344cd1fd0a4f28419497f9722a3daafe3b4186f6b6457e060405160405180910390a3611046806100cf6000396000f3fe6080604052600436106100a75760003560e01c80638f32d59b116100645780638f32d59b14610259578063b2bdfa7b14610288578063baf81fc5146102df578063c8d41ee014610352578063f269c16814610421578063f2fde38b14610528576100a7565b8063086aa372146100ac5780631095846f146101275780635a60105d14610155578063715018a6146101b0578063754aebe7146101c75780638da5cb5b14610202575b600080fd5b3480156100b857600080fd5b506100e5600480360360208110156100cf57600080fd5b8101908080359060200190929190505050610579565b604051808273ffffffffffffffffffffffffffffffffffffffff1673ffffffffffffffffffffffffffffffffffffffff16815260200191505060405180910390f35b6101536004803603602081101561013d57600080fd5b81019080803590602001909291905050506105ac565b005b34801561016157600080fd5b506101ae6004803603604081101561017857600080fd5b8101908080359060200190929190803573ffffffffffffffffffffffffffffffffffffffff16906020019092919050505061076b565b005b3480156101bc57600080fd5b506101c5610a58565b005b3480156101d357600080fd5b50610200600480360360208110156101ea57600080fd5b8101908080359060200190929190505050610b28565b005b34801561020e57600080fd5b50610217610be4565b604051808273ffffffffffffffffffffffffffffffffffffffff1673ffffffffffffffffffffffffffffffffffffffff16815260200191505060405180910390f35b34801561026557600080fd5b5061026e610c0d565b604051808215151515815260200191505060405180910390f35b34801561029457600080fd5b5061029d610c64565b604051808273ffffffffffffffffffffffffffffffffffffffff1673ffffffffffffffffffffffffffffffffffffffff16815260200191505060405180910390f35b3480156102eb57600080fd5b5061032e6004803603602081101561030257600080fd5b81019080803573ffffffffffffffffffffffffffffffffffffffff169060200190929190505050610c8a565b6040518082600281111561033e57fe5b60ff16815260200191505060405180910390f35b61041f6004803603606081101561036857600080fd5b810190808035906020019064010000000081111561038557600080fd5b82018360208201111561039757600080fd5b803590602001918460018302840111640100000000831117156103b957600080fd5b91908080601f016020809104026020016040519081016040528093929190818152602001838380828437600081840152601f19601f8201169050808301925050505050505091929192908035906020019092919080359060200190929190505050610caa565b005b34801561042d57600080fd5b5061045a6004803603602081101561044457600080fd5b8101908080359060200190929190505050610cc0565b60405180878152602001806020018681526020018573ffffffffffffffffffffffffffffffffffffffff1673ffffffffffffffffffffffffffffffffffffffff16815260200184151515158152602001838152602001828103825287818151815260200191508051906020019080838360005b838110156104e85780820151818401526020810190506104cd565b50505050905090810190601f1680156105155780820380516001836020036101000a031916815260200191505b5097505050505050505060405180910390f35b34801561053457600080fd5b506105776004803603602081101561054b57600080fd5b81019080803573ffffffffffffffffffffffffffffffffffffffff169060200190929190505050610dc1565b005b60036020528060005260406000206000915054906101000a900473ffffffffffffffffffffffffffffffffffffffff1681565b80600060046000838152602001908152602001600020600001541161061c576040517f08c379a0000000000000000000000000000000000000000000000000000000008152600401808060200182810382526023815260200180610f386023913960400191505060405180910390fd5b6001600281111561062957fe5b600260003373ffffffffffffffffffffffffffffffffffffffff1673ffffffffffffffffffffffffffffffffffffffff16815260200190815260200160002060009054906101000a900460ff16600281111561068157fe5b14156106d8576040517f08c379a0000000000000000000000000000000000000000000000000000000008152600401808060200182810382526027815260200180610feb6027913960400191505060405180910390fd5b600060046000848152602001908152602001600020600601541115610767576004600083815260200190815260200160002060060154341015610766576040517f08c379a0000000000000000000000000000000000000000000000000000000008152600401808060200182810382526026815260200180610f886026913960400191505060405180910390fd5b5b5050565b6001600281111561077857fe5b600260003373ffffffffffffffffffffffffffffffffffffffff1673ffffffffffffffffffffffffffffffffffffffff16815260200190815260200160002060009054906101000a900460ff1660028111156107d057fe5b14610826576040517f08c379a000000000000000000000000000000000000000000000000000000000815260040180806020018281038252602d815260200180610f5b602d913960400191505060405180910390fd5b813373ffffffffffffffffffffffffffffffffffffffff166003600083815260200190815260200160002060009054906101000a900473ffffffffffffffffffffffffffffffffffffffff1673ffffffffffffffffffffffffffffffffffffffff16146108de576040517f08c379a000000000000000000000000000000000000000000000000000000000815260040180806020018281038252602e815260200180610ed7602e913960400191505060405180910390fd5b600060028111156108eb57fe5b600260003373ffffffffffffffffffffffffffffffffffffffff1673ffffffffffffffffffffffffffffffffffffffff16815260200190815260200160002060009054906101000a900460ff16600281111561094357fe5b14610999576040517f08c379a0000000000000000000000000000000000000000000000000000000008152600401808060200182810382526033815260200180610f056033913960400191505060405180910390fd5b82826004600083815260200190815260200160002060040160008273ffffffffffffffffffffffffffffffffffffffff1673ffffffffffffffffffffffffffffffffffffffff16815260200190815260200160002060009054906101000a900460ff16610a51576040517f08c379a000000000000000000000000000000000000000000000000000000000815260040180806020018281038252603d815260200180610fae603d913960400191505060405180910390fd5b5050505050565b610a60610c0d565b610a6957600080fd5b600073ffffffffffffffffffffffffffffffffffffffff166000809054906101000a900473ffffffffffffffffffffffffffffffffffffffff1673ffffffffffffffffffffffffffffffffffffffff167f8be0079c531659141344cd1fd0a4f28419497f9722a3daafe3b4186f6b6457e060405160405180910390a360008060006101000a81548173ffffffffffffffffffffffffffffffffffffffff021916908373ffffffffffffffffffffffffffffffffffffffff160217905550565b803373ffffffffffffffffffffffffffffffffffffffff166003600083815260200190815260200160002060009054906101000a900473ffffffffffffffffffffffffffffffffffffffff1673ffffffffffffffffffffffffffffffffffffffff1614610be0576040517f08c379a000000000000000000000000000000000000000000000000000000000815260040180806020018281038252602e815260200180610ed7602e913960400191505060405180910390fd5b5050565b60008060009054906101000a900473ffffffffffffffffffffffffffffffffffffffff16905090565b60008060009054906101000a900473ffffffffffffffffffffffffffffffffffffffff1673ffffffffffffffffffffffffffffffffffffffff163373ffffffffffffffffffffffffffffffffffffffff1614905090565b600160009054906101000a900473ffffffffffffffffffffffffffffffffffffffff1681565b60026020528060005260406000206000915054906101000a900460ff1681565b610cb2610c0d565b610cbb57600080fd5b505050565b6004602052806000526040600020600091509050806000015490806001018054600181600116156101000203166002900480601f016020809104026020016040519081016040528092919081815260200182805460018160011615610100020316600290048015610d725780601f10610d4757610100808354040283529160200191610d72565b820191906000526020600020905b815481529060010190602001808311610d5557829003601f168201915b5050505050908060020154908060030160009054906101000a900473ffffffffffffffffffffffffffffffffffffffff16908060050160009054906101000a900460ff16908060060154905086565b610dc9610c0d565b610dd257600080fd5b610ddb81610dde565b50565b600073ffffffffffffffffffffffffffffffffffffffff168173ffffffffffffffffffffffffffffffffffffffff161415610e1857600080fd5b8073ffffffffffffffffffffffffffffffffffffffff166000809054906101000a900473ffffffffffffffffffffffffffffffffffffffff1673ffffffffffffffffffffffffffffffffffffffff167f8be0079c531659141344cd1fd0a4f28419497f9722a3daafe3b4186f6b6457e060405160405180910390a3806000806101000a81548173ffffffffffffffffffffffffffffffffffffffff021916908373ffffffffffffffffffffffffffffffffffffffff1602179055505056fe5468652053656e646572206973206e6f7420616e2041646d696e206f66207468617420436f6d7065746974696f6e5468652053656e646572206973206e6f7420616e205061727469636970616e74206f6620616e7920436f6d7065746974696f6e4e6f20436f6d7065746974696f6e2073746172746564207769746820746861742049445468652053656e646572206973206e6f7420616e2041646d696e206f6620616e7920436f6d7065746974696f6e56616c756520646964206e6f74206d6565742074686520636f6d7065746974696f6e206665655468652070726f706f7365642061646472657373206973206e6f742061207061727469636970616e7420696e207468617420636f6d7065746974696f6e5468652053656e64657220697320616e2041646d696e206f66206120436f6d7065746974696f6ea265627a7a72315820612fe248a55599caeefbea1f56c7111a2c4b87c24f9c0b17b8593d38a831ca2f64736f6c634300050c0032",
  "source": "pragma solidity >=0.5.0 <0.6.0;\n\nimport \"./ownable.sol\";\n\ncontract MainCompetition is Ownable {\n    // TO-DO: add OpenZeppelin to transfer ownership of contract\n\n    address public _owner;\n\n    enum userType {Participant, Admin, Judge}\n    mapping(address => userType)  public addressToUserType;\n\n    // TO-DO: change to array? admin more than one Competition\n    // TO-DO: change state variables to not public\n    mapping(uint256 => address) public adminOfCID;\n\n    mapping(uint256 => Competition) public CIDToCompetition;\n\n    struct Competition {\n        uint256 CID;\n        string name;\n        uint256 totalPrize;\n        address admin;\n        mapping(address => bool) participants;\n        bool isOpen;\n        uint256 fee;\n    }\n\n    event CompetitionCreated (uint256 CID, string name);\n\n    modifier isCompetition (uint256 _CID) {\n        require(CIDToCompetition[_CID].CID > 0, \"No Competition started with that ID\");\n        _;\n    }\n\n    modifier isAdmin() {\n        require(addressToUserType[msg.sender] == userType.Admin, \"The Sender is not an Admin of any Competition\");\n        _;\n    }\n\n    modifier isNotAdmin() {\n        require(addressToUserType[msg.sender] != userType.Admin, \"The Sender is an Admin of a Competition\");\n        _;\n    }\n\n    modifier isAdminOf (uint256 _CID) {\n        require(adminOfCID[_CID] == msg.sender, \"The Sender is not an Admin of that Competition\");\n        _;\n    }\n\n    modifier isParticipant() {\n        require(addressToUserType[msg.sender] == userType.Participant, \"The Sender is not an Participant of any Competition\");\n        _;\n    }\n\n    modifier isParticipantOf (uint256 _CID, address _allegedParticipant) {\n        require(CIDToCompetition[_CID].participants[_allegedParticipant], \"The proposed address is not a participant in that competition\");\n        _;\n    }\n\n    //TO-DO: add Counter\n    function createCompetition (string memory _name, uint256 _totalPrize, uint256 _fee) public payable onlyOwner {\n\n    }\n\n    // Ends Competition -- Rescricted to Admins and Only Admins of this Competition\n    function endCompetition (uint256 _CID) public isAdminOf(_CID) {\n\n    }\n\n    function chooseWinner (uint256 _CID, address _winnerAddress) public isAdmin isAdminOf(_CID) isParticipant()\n    isParticipantOf(_CID, _winnerAddress) {\n\n    }\n\n    function joinCompetition (uint256 _CID) public payable isCompetition(_CID) isNotAdmin() {\n        if (CIDToCompetition[_CID].fee > 0) {\n            require(msg.value >= CIDToCompetition[_CID].fee, \"Value did not meet the competition fee\");\n        }\n\n    }\n\n}\n",
  "sourcePath": "/Users/heathdaniel/Documents/GitHub/Gotham-DLT-Project/contracts/MainCompetition.sol",
  "compiler": {
    "name": "solc",
    "version": "0.5.12+commit.7709ece9.Emscripten.clang"
  },
  "schemaVersion": "3.0.19",
  "updatedAt": "2019-12-07T23:49:59.580Z",
  "devdoc": {
    "methods": {
      "isOwner()": {
        "return": "true if `msg.sender` is the owner of the contract."
      },
      "owner()": {
        "return": "the address of the owner."
      },
      "renounceOwnership()": {
        "details": "Allows the current owner to relinquish control of the contract."
      },
      "transferOwnership(address)": {
        "details": "Allows the current owner to transfer control of the contract to a newOwner.",
        "params": {
          "newOwner": "The address to transfer ownership to."
        }
      }
    }
  },
  "userdoc": {
    "methods": {
      "renounceOwnership()": {
        "notice": "Renouncing to ownership will leave the contract without an owner. It will not be possible to call the functions with the `onlyOwner` modifier anymore."
      }
    }
  }
}