{
  "contractName": "MainCompetition",
  "abi": [
    {
      "inputs": [],
      "payable": false,
      "stateMutability": "nonpayable",
      "type": "constructor"
    },
    {
      "anonymous": false,
      "inputs": [
        {
          "indexed": false,
          "internalType": "uint256",
          "name": "CID",
          "type": "uint256"
        },
        {
          "indexed": false,
          "internalType": "string",
          "name": "name",
          "type": "string"
        }
      ],
      "name": "CompetitionCreated",
      "type": "event"
    },
    {
      "constant": true,
      "inputs": [
        {
          "internalType": "uint256",
          "name": "",
          "type": "uint256"
        }
      ],
      "name": "CIDToCompetition",
      "outputs": [
        {
          "internalType": "uint256",
          "name": "CID",
          "type": "uint256"
        },
        {
          "internalType": "string",
          "name": "name",
          "type": "string"
        },
        {
          "internalType": "uint256",
          "name": "totalPrize",
          "type": "uint256"
        },
        {
          "internalType": "address",
          "name": "admin",
          "type": "address"
        },
        {
          "internalType": "bool",
          "name": "isOpen",
          "type": "bool"
        },
        {
          "internalType": "uint256",
          "name": "fee",
          "type": "uint256"
        }
      ],
      "payable": false,
      "stateMutability": "view",
      "type": "function"
    },
    {
      "constant": true,
      "inputs": [],
      "name": "_owner",
      "outputs": [
        {
          "internalType": "address",
          "name": "",
          "type": "address"
        }
      ],
      "payable": false,
      "stateMutability": "view",
      "type": "function"
    },
    {
      "constant": true,
      "inputs": [
        {
          "internalType": "address",
          "name": "",
          "type": "address"
        }
      ],
      "name": "addressToUserType",
      "outputs": [
        {
          "internalType": "enum MainCompetition.userType",
          "name": "",
          "type": "uint8"
        }
      ],
      "payable": false,
      "stateMutability": "view",
      "type": "function"
    },
    {
      "constant": true,
      "inputs": [
        {
          "internalType": "uint256",
          "name": "",
          "type": "uint256"
        }
      ],
      "name": "adminOfCID",
      "outputs": [
        {
          "internalType": "address",
          "name": "",
          "type": "address"
        }
      ],
      "payable": false,
      "stateMutability": "view",
      "type": "function"
    },
    {
      "constant": false,
      "inputs": [
        {
          "internalType": "string",
          "name": "_name",
          "type": "string"
        },
        {
          "internalType": "uint256",
          "name": "_totalPrize",
          "type": "uint256"
        },
        {
          "internalType": "uint256",
          "name": "_fee",
          "type": "uint256"
        }
      ],
      "name": "createCompetition",
      "outputs": [],
      "payable": true,
      "stateMutability": "payable",
      "type": "function"
    },
    {
      "constant": false,
      "inputs": [
        {
          "internalType": "uint256",
          "name": "_CID",
          "type": "uint256"
        }
      ],
      "name": "endCompetition",
      "outputs": [],
      "payable": false,
      "stateMutability": "nonpayable",
      "type": "function"
    },
    {
      "constant": false,
      "inputs": [
        {
          "internalType": "uint256",
          "name": "_CID",
          "type": "uint256"
        },
        {
          "internalType": "address",
          "name": "_winnerAddress",
          "type": "address"
        }
      ],
      "name": "chooseWinner",
      "outputs": [],
      "payable": false,
      "stateMutability": "nonpayable",
      "type": "function"
    },
    {
      "constant": false,
      "inputs": [
        {
          "internalType": "uint256",
          "name": "_CID",
          "type": "uint256"
        }
      ],
      "name": "joinCompetition",
      "outputs": [],
      "payable": true,
      "stateMutability": "payable",
      "type": "function"
    }
  ],
  "bytecode": "0x608060405234801561001057600080fd5b50336000806101000a81548173ffffffffffffffffffffffffffffffffffffffff021916908373ffffffffffffffffffffffffffffffffffffffff160217905550610e32806100606000396000f3fe60806040526004361061007b5760003560e01c8063b2bdfa7b1161004e578063b2bdfa7b146101bf578063baf81fc514610216578063c8d41ee014610289578063f269c168146103585761007b565b8063086aa372146100805780631095846f146100fb5780635a60105d14610129578063754aebe714610184575b600080fd5b34801561008c57600080fd5b506100b9600480360360208110156100a357600080fd5b810190808035906020019092919050505061045f565b604051808273ffffffffffffffffffffffffffffffffffffffff1673ffffffffffffffffffffffffffffffffffffffff16815260200191505060405180910390f35b6101276004803603602081101561011157600080fd5b8101908080359060200190929190505050610492565b005b34801561013557600080fd5b506101826004803603604081101561014c57600080fd5b8101908080359060200190929190803573ffffffffffffffffffffffffffffffffffffffff169060200190929190505050610651565b005b34801561019057600080fd5b506101bd600480360360208110156101a757600080fd5b810190808035906020019092919050505061093e565b005b3480156101cb57600080fd5b506101d4610ab5565b604051808273ffffffffffffffffffffffffffffffffffffffff1673ffffffffffffffffffffffffffffffffffffffff16815260200191505060405180910390f35b34801561022257600080fd5b506102656004803603602081101561023957600080fd5b81019080803573ffffffffffffffffffffffffffffffffffffffff169060200190929190505050610ada565b6040518082600281111561027557fe5b60ff16815260200191505060405180910390f35b6103566004803603606081101561029f57600080fd5b81019080803590602001906401000000008111156102bc57600080fd5b8201836020820111156102ce57600080fd5b803590602001918460018302840111640100000000831117156102f057600080fd5b91908080601f016020809104026020016040519081016040528093929190818152602001838380828437600081840152601f19601f8201169050808301925050505050505091929192908035906020019092919080359060200190929190505050610afa565b005b34801561036457600080fd5b506103916004803603602081101561037b57600080fd5b8101908080359060200190929190505050610bc1565b60405180878152602001806020018681526020018573ffffffffffffffffffffffffffffffffffffffff1673ffffffffffffffffffffffffffffffffffffffff16815260200184151515158152602001838152602001828103825287818151815260200191508051906020019080838360005b8381101561041f578082015181840152602081019050610404565b50505050905090810190601f16801561044c5780820380516001836020036101000a031916815260200191505b5097505050505050505060405180910390f35b60026020528060005260406000206000915054906101000a900473ffffffffffffffffffffffffffffffffffffffff1681565b806000600360008381526020019081526020016000206000015411610502576040517f08c379a0000000000000000000000000000000000000000000000000000000008152600401808060200182810382526023815260200180610d246023913960400191505060405180910390fd5b6001600281111561050f57fe5b600160003373ffffffffffffffffffffffffffffffffffffffff1673ffffffffffffffffffffffffffffffffffffffff16815260200190815260200160002060009054906101000a900460ff16600281111561056757fe5b14156105be576040517f08c379a0000000000000000000000000000000000000000000000000000000008152600401808060200182810382526027815260200180610dd76027913960400191505060405180910390fd5b60006003600084815260200190815260200160002060060154111561064d57600360008381526020019081526020016000206006015434101561064c576040517f08c379a0000000000000000000000000000000000000000000000000000000008152600401808060200182810382526026815260200180610d746026913960400191505060405180910390fd5b5b5050565b6001600281111561065e57fe5b600160003373ffffffffffffffffffffffffffffffffffffffff1673ffffffffffffffffffffffffffffffffffffffff16815260200190815260200160002060009054906101000a900460ff1660028111156106b657fe5b1461070c576040517f08c379a000000000000000000000000000000000000000000000000000000000815260040180806020018281038252602d815260200180610d47602d913960400191505060405180910390fd5b813373ffffffffffffffffffffffffffffffffffffffff166002600083815260200190815260200160002060009054906101000a900473ffffffffffffffffffffffffffffffffffffffff1673ffffffffffffffffffffffffffffffffffffffff16146107c4576040517f08c379a000000000000000000000000000000000000000000000000000000000815260040180806020018281038252602e815260200180610cc3602e913960400191505060405180910390fd5b600060028111156107d157fe5b600160003373ffffffffffffffffffffffffffffffffffffffff1673ffffffffffffffffffffffffffffffffffffffff16815260200190815260200160002060009054906101000a900460ff16600281111561082957fe5b1461087f576040517f08c379a0000000000000000000000000000000000000000000000000000000008152600401808060200182810382526033815260200180610cf16033913960400191505060405180910390fd5b82826003600083815260200190815260200160002060040160008273ffffffffffffffffffffffffffffffffffffffff1673ffffffffffffffffffffffffffffffffffffffff16815260200190815260200160002060009054906101000a900460ff16610937576040517f08c379a000000000000000000000000000000000000000000000000000000000815260040180806020018281038252603d815260200180610d9a603d913960400191505060405180910390fd5b5050505050565b6001600281111561094b57fe5b600160003373ffffffffffffffffffffffffffffffffffffffff1673ffffffffffffffffffffffffffffffffffffffff16815260200190815260200160002060009054906101000a900460ff1660028111156109a357fe5b146109f9576040517f08c379a000000000000000000000000000000000000000000000000000000000815260040180806020018281038252602d815260200180610d47602d913960400191505060405180910390fd5b803373ffffffffffffffffffffffffffffffffffffffff166002600083815260200190815260200160002060009054906101000a900473ffffffffffffffffffffffffffffffffffffffff1673ffffffffffffffffffffffffffffffffffffffff1614610ab1576040517f08c379a000000000000000000000000000000000000000000000000000000000815260040180806020018281038252602e815260200180610cc3602e913960400191505060405180910390fd5b5050565b6000809054906101000a900473ffffffffffffffffffffffffffffffffffffffff1681565b60016020528060005260406000206000915054906101000a900460ff1681565b6000809054906101000a900473ffffffffffffffffffffffffffffffffffffffff1673ffffffffffffffffffffffffffffffffffffffff163373ffffffffffffffffffffffffffffffffffffffff1614610bbc576040517f08c379a00000000000000000000000000000000000000000000000000000000081526004018080602001828103825260098152602001807f546865204f776e6572000000000000000000000000000000000000000000000081525060200191505060405180910390fd5b505050565b6003602052806000526040600020600091509050806000015490806001018054600181600116156101000203166002900480601f016020809104026020016040519081016040528092919081815260200182805460018160011615610100020316600290048015610c735780601f10610c4857610100808354040283529160200191610c73565b820191906000526020600020905b815481529060010190602001808311610c5657829003601f168201915b5050505050908060020154908060030160009054906101000a900473ffffffffffffffffffffffffffffffffffffffff16908060050160009054906101000a900460ff1690806006015490508656fe5468652053656e646572206973206e6f7420616e2041646d696e206f66207468617420436f6d7065746974696f6e5468652053656e646572206973206e6f7420616e205061727469636970616e74206f6620616e7920436f6d7065746974696f6e4e6f20436f6d7065746974696f6e2073746172746564207769746820746861742049445468652053656e646572206973206e6f7420616e2041646d696e206f6620616e7920436f6d7065746974696f6e56616c756520646964206e6f74206d6565742074686520636f6d7065746974696f6e206665655468652070726f706f7365642061646472657373206973206e6f742061207061727469636970616e7420696e207468617420636f6d7065746974696f6e5468652053656e64657220697320616e2041646d696e206f66206120436f6d7065746974696f6ea265627a7a723158205546ff5561ba5ad70aa7ed67510acd24d6ea851ed40c675923d4c69da611e95264736f6c634300050c0032",
  "source": "pragma solidity >=0.4.21 <0.6.0;\r\n\r\ncontract MainCompetition {\r\n    // TO-DO: add OpenZeppelin to transfer ownership of contract\r\n\r\n    address public _owner;\r\n\r\n    enum userType {Participant, Admin, Judge}\r\n    mapping(address => userType)  public addressToUserType;\r\n\r\n    // TO-DO: change to array? admin more than one Competition\r\n    // TO-DO: change state variables to not public\r\n    mapping(uint256 => address) public adminOfCID;\r\n\r\n    mapping(uint256 => Competition) public CIDToCompetition;\r\n\r\n    struct Competition {\r\n        uint256 CID;\r\n        string name;\r\n        uint256 totalPrize;\r\n        address admin;\r\n        mapping(address => bool) participants;\r\n        bool isOpen;\r\n        uint256 fee;\r\n    }\r\n\r\n    event CompetitionCreated (uint256 CID, string name);\r\n\r\n    modifier isOwner() {\r\n        require(msg.sender == _owner, \"The Owner\");\r\n        _;\r\n    }\r\n\r\n    modifier isCompetition (uint256 _CID) {\r\n        require(CIDToCompetition[_CID].CID > 0, \"No Competition started with that ID\");\r\n        _;\r\n    }\r\n\r\n    modifier isAdmin() {\r\n        require(addressToUserType[msg.sender] == userType.Admin, \"The Sender is not an Admin of any Competition\");\r\n        _;\r\n    }\r\n\r\n    modifier isNotAdmin() {\r\n        require(addressToUserType[msg.sender] != userType.Admin, \"The Sender is an Admin of a Competition\");\r\n        _;\r\n    }\r\n\r\n    modifier isAdminOf (uint256 _CID) {\r\n        require(adminOfCID[_CID] == msg.sender, \"The Sender is not an Admin of that Competition\");\r\n        _;\r\n    }\r\n\r\n    modifier isParticipant() {\r\n        require(addressToUserType[msg.sender] == userType.Participant, \"The Sender is not an Participant of any Competition\");\r\n        _;\r\n    }\r\n\r\n    modifier isParticipantOf (uint256 _CID, address _allegedParticipant) {\r\n        require(CIDToCompetition[_CID].participants[_allegedParticipant], \"The proposed address is not a participant in that competition\");\r\n        _;\r\n    }\r\n\r\n    constructor () public {\r\n        _owner = msg.sender;\r\n    }\r\n\r\n    //TO-DO: add Counter\r\n    function createCompetition (string memory _name, uint256 _totalPrize, uint256 _fee) public payable isOwner() {\r\n\r\n    }\r\n\r\n    function endCompetition (uint256 _CID) public isAdmin() isAdminOf(_CID) {\r\n\r\n    }\r\n\r\n    function chooseWinner (uint256 _CID, address _winnerAddress) public isAdmin isAdminOf(_CID) isParticipant()\r\n    isParticipantOf(_CID, _winnerAddress) {\r\n\r\n    }\r\n\r\n    function joinCompetition (uint256 _CID) public payable isCompetition(_CID) isNotAdmin() {\r\n        if (CIDToCompetition[_CID].fee > 0) {\r\n            require(msg.value >= CIDToCompetition[_CID].fee, \"Value did not meet the competition fee\");\r\n        }\r\n\r\n    }\r\n\r\n}\r\n",
  "sourcePath": "C:/Users/Victoria/Desktop/Gotham-DLT-Project/contracts/MainCompetition.sol",
  "compiler": {
    "name": "solc",
    "version": "0.5.12+commit.7709ece9.Emscripten.clang"
  },
  "schemaVersion": "3.0.19",
  "updatedAt": "2019-12-07T23:03:53.206Z",
  "devdoc": {
    "methods": {}
  },
  "userdoc": {
    "methods": {}
  }
}