{
  "contractName": "MainCompetition",
  "abi": [
    {
      "anonymous": false,
      "inputs": [
        {
          "indexed": false,
          "internalType": "uint256",
          "name": "compId",
          "type": "uint256"
        },
        {
          "indexed": false,
          "internalType": "string",
          "name": "name",
          "type": "string"
        }
      ],
      "name": "NewCompetition",
      "type": "event"
    },
    {
      "anonymous": false,
      "inputs": [
        {
          "indexed": true,
          "internalType": "address",
          "name": "previousOwner",
          "type": "address"
        },
        {
          "indexed": true,
          "internalType": "address",
          "name": "newOwner",
          "type": "address"
        }
      ],
      "name": "OwnershipTransferred",
      "type": "event"
    },
    {
      "constant": true,
      "inputs": [
        {
          "internalType": "address",
          "name": "",
          "type": "address"
        }
      ],
      "name": "addressToUserType",
      "outputs": [
        {
          "internalType": "uint256",
          "name": "",
          "type": "uint256"
        }
      ],
      "payable": false,
      "stateMutability": "view",
      "type": "function"
    },
    {
      "constant": true,
      "inputs": [
        {
          "internalType": "address",
          "name": "",
          "type": "address"
        }
      ],
      "name": "adminToCompId",
      "outputs": [
        {
          "internalType": "uint256",
          "name": "",
          "type": "uint256"
        }
      ],
      "payable": false,
      "stateMutability": "view",
      "type": "function"
    },
    {
      "constant": true,
      "inputs": [
        {
          "internalType": "uint256",
          "name": "",
          "type": "uint256"
        }
      ],
      "name": "compIdToAdmin",
      "outputs": [
        {
          "internalType": "address",
          "name": "",
          "type": "address"
        }
      ],
      "payable": false,
      "stateMutability": "view",
      "type": "function"
    },
    {
      "constant": true,
      "inputs": [
        {
          "internalType": "uint256",
          "name": "",
          "type": "uint256"
        }
      ],
      "name": "competitions",
      "outputs": [
        {
          "internalType": "string",
          "name": "name",
          "type": "string"
        },
        {
          "internalType": "uint256",
          "name": "totalPrize",
          "type": "uint256"
        },
        {
          "internalType": "bool",
          "name": "isOpen",
          "type": "bool"
        }
      ],
      "payable": false,
      "stateMutability": "view",
      "type": "function"
    },
    {
      "constant": true,
      "inputs": [],
      "name": "isOwner",
      "outputs": [
        {
          "internalType": "bool",
          "name": "",
          "type": "bool"
        }
      ],
      "payable": false,
      "stateMutability": "view",
      "type": "function"
    },
    {
      "constant": true,
      "inputs": [],
      "name": "owner",
      "outputs": [
        {
          "internalType": "address",
          "name": "",
          "type": "address"
        }
      ],
      "payable": false,
      "stateMutability": "view",
      "type": "function"
    },
    {
      "constant": false,
      "inputs": [],
      "name": "renounceOwnership",
      "outputs": [],
      "payable": false,
      "stateMutability": "nonpayable",
      "type": "function"
    },
    {
      "constant": false,
      "inputs": [
        {
          "internalType": "address",
          "name": "newOwner",
          "type": "address"
        }
      ],
      "name": "transferOwnership",
      "outputs": [],
      "payable": false,
      "stateMutability": "nonpayable",
      "type": "function"
    },
    {
      "constant": false,
      "inputs": [
        {
          "internalType": "string",
          "name": "_userType",
          "type": "string"
        }
      ],
      "name": "selectUserType",
      "outputs": [],
      "payable": false,
      "stateMutability": "nonpayable",
      "type": "function"
    },
    {
      "constant": false,
      "inputs": [
        {
          "internalType": "string",
          "name": "_name",
          "type": "string"
        },
        {
          "internalType": "uint256",
          "name": "_totalPrize",
          "type": "uint256"
        }
      ],
      "name": "createCompetition",
      "outputs": [],
      "payable": true,
      "stateMutability": "payable",
      "type": "function"
    }
  ],
  "bytecode": "0x6080604052336000806101000a81548173ffffffffffffffffffffffffffffffffffffffff021916908373ffffffffffffffffffffffffffffffffffffffff1602179055506000809054906101000a900473ffffffffffffffffffffffffffffffffffffffff1673ffffffffffffffffffffffffffffffffffffffff16600073ffffffffffffffffffffffffffffffffffffffff167f8be0079c531659141344cd1fd0a4f28419497f9722a3daafe3b4186f6b6457e060405160405180910390a3610f0e806100cf6000396000f3fe6080604052600436106100915760003560e01c80639f6828d9116100595780639f6828d914610273578063baf81fc514610339578063dd698c051461039e578063e13094a214610403578063f2fde38b146104cb57610091565b80631d91d32214610096578063715018a61461015b5780638da5cb5b146101725780638f32d59b146101c957806391838cd0146101f8575b600080fd5b610159600480360360408110156100ac57600080fd5b81019080803590602001906401000000008111156100c957600080fd5b8201836020820111156100db57600080fd5b803590602001918460018302840111640100000000831117156100fd57600080fd5b91908080601f016020809104026020016040519081016040528093929190818152602001838380828437600081840152601f19601f8201169050808301925050505050505091929192908035906020019092919050505061051c565b005b34801561016757600080fd5b5061017061061a565b005b34801561017e57600080fd5b50610187610753565b604051808273ffffffffffffffffffffffffffffffffffffffff1673ffffffffffffffffffffffffffffffffffffffff16815260200191505060405180910390f35b3480156101d557600080fd5b506101de61077c565b604051808215151515815260200191505060405180910390f35b34801561020457600080fd5b506102316004803603602081101561021b57600080fd5b81019080803590602001909291905050506107d3565b604051808273ffffffffffffffffffffffffffffffffffffffff1673ffffffffffffffffffffffffffffffffffffffff16815260200191505060405180910390f35b34801561027f57600080fd5b506102ac6004803603602081101561029657600080fd5b8101908080359060200190929190505050610806565b604051808060200184815260200183151515158152602001828103825285818151815260200191508051906020019080838360005b838110156102fc5780820151818401526020810190506102e1565b50505050905090810190601f1680156103295780820380516001836020036101000a031916815260200191505b5094505050505060405180910390f35b34801561034557600080fd5b506103886004803603602081101561035c57600080fd5b81019080803573ffffffffffffffffffffffffffffffffffffffff1690602001909291905050506108e2565b6040518082815260200191505060405180910390f35b3480156103aa57600080fd5b506103ed600480360360208110156103c157600080fd5b81019080803573ffffffffffffffffffffffffffffffffffffffff1690602001909291905050506108fa565b6040518082815260200191505060405180910390f35b34801561040f57600080fd5b506104c96004803603602081101561042657600080fd5b810190808035906020019064010000000081111561044357600080fd5b82018360208201111561045557600080fd5b8035906020019184600183028401116401000000008311171561047757600080fd5b91908080601f016020809104026020016040519081016040528093929190818152602001838380828437600081840152601f19601f820116905080830192505050505050509192919290505050610912565b005b3480156104d757600080fd5b5061051a600480360360208110156104ee57600080fd5b81019080803573ffffffffffffffffffffffffffffffffffffffff169060200190929190505050610a63565b005b6000600160003373ffffffffffffffffffffffffffffffffffffffff1673ffffffffffffffffffffffffffffffffffffffff16815260200190815260200160002054146105b4576040517f08c379a000000000000000000000000000000000000000000000000000000000815260040180806020018281038252602d815260200180610ead602d913960400191505060405180910390fd5b80341461060c576040517f08c379a000000000000000000000000000000000000000000000000000000000815260040180806020018281038252602a815260200180610e83602a913960400191505060405180910390fd5b6106168282610ae9565b5050565b61062261077c565b610694576040517f08c379a00000000000000000000000000000000000000000000000000000000081526004018080602001828103825260178152602001807f4d75737420626520636f6e7472616374206f776e65722e00000000000000000081525060200191505060405180910390fd5b600073ffffffffffffffffffffffffffffffffffffffff166000809054906101000a900473ffffffffffffffffffffffffffffffffffffffff1673ffffffffffffffffffffffffffffffffffffffff167f8be0079c531659141344cd1fd0a4f28419497f9722a3daafe3b4186f6b6457e060405160405180910390a360008060006101000a81548173ffffffffffffffffffffffffffffffffffffffff021916908373ffffffffffffffffffffffffffffffffffffffff160217905550565b60008060009054906101000a900473ffffffffffffffffffffffffffffffffffffffff16905090565b60008060009054906101000a900473ffffffffffffffffffffffffffffffffffffffff1673ffffffffffffffffffffffffffffffffffffffff163373ffffffffffffffffffffffffffffffffffffffff1614905090565b60036020528060005260406000206000915054906101000a900473ffffffffffffffffffffffffffffffffffffffff1681565b6004818154811061081357fe5b9060005260206000209060030201600091509050806000018054600181600116156101000203166002900480601f0160208091040260200160405190810160405280929190818152602001828054600181600116156101000203166002900480156108bf5780601f10610894576101008083540402835291602001916108bf565b820191906000526020600020905b8154815290600101906020018083116108a257829003601f168201915b5050505050908060010154908060020160009054906101000a900460ff16905083565b60016020528060005260406000206000915090505481565b60026020528060005260406000206000915090505481565b60405160200180807f41646d696e000000000000000000000000000000000000000000000000000000815250600501905060405160208183030381529060405280519060200120816040516020018082805190602001908083835b60208310610990578051825260208201915060208101905060208303925061096d565b6001836020036101000a038019825116818451168082178552505050505050905001915050604051602081830303815290604052805190602001201415610a1a5760018060003373ffffffffffffffffffffffffffffffffffffffff1673ffffffffffffffffffffffffffffffffffffffff16815260200190815260200160002081905550610a60565b6002600160003373ffffffffffffffffffffffffffffffffffffffff1673ffffffffffffffffffffffffffffffffffffffff168152602001908152602001600020819055505b50565b610a6b61077c565b610add576040517f08c379a00000000000000000000000000000000000000000000000000000000081526004018080602001828103825260178152602001807f4d75737420626520636f6e7472616374206f776e65722e00000000000000000081525060200191505060405180910390fd5b610ae681610c7c565b50565b60006004604051806060016040528085815260200184815260200160001515815250908060018154018082558091505090600182039060005260206000209060030201600090919290919091506000820151816000019080519060200190610b52929190610ddd565b506020820151816001015560408201518160020160006101000a81548160ff02191690831515021790555050509050336003600083815260200190815260200160002060006101000a81548173ffffffffffffffffffffffffffffffffffffffff021916908373ffffffffffffffffffffffffffffffffffffffff1602179055507ffcc0660c51ba49ee2cfd82a3498048eb525d2054e898a83de978cfcb088404cd81846040518083815260200180602001828103825283818151815260200191508051906020019080838360005b83811015610c3c578082015181840152602081019050610c21565b50505050905090810190601f168015610c695780820380516001836020036101000a031916815260200191505b50935050505060405180910390a1505050565b600073ffffffffffffffffffffffffffffffffffffffff168173ffffffffffffffffffffffffffffffffffffffff161415610d1f576040517f08c379a00000000000000000000000000000000000000000000000000000000081526004018080602001828103825260188152602001807f416464726573732063616e6e6f7420626520626c616e6b2e000000000000000081525060200191505060405180910390fd5b8073ffffffffffffffffffffffffffffffffffffffff166000809054906101000a900473ffffffffffffffffffffffffffffffffffffffff1673ffffffffffffffffffffffffffffffffffffffff167f8be0079c531659141344cd1fd0a4f28419497f9722a3daafe3b4186f6b6457e060405160405180910390a3806000806101000a81548173ffffffffffffffffffffffffffffffffffffffff021916908373ffffffffffffffffffffffffffffffffffffffff16021790555050565b828054600181600116156101000203166002900490600052602060002090601f016020900481019282601f10610e1e57805160ff1916838001178555610e4c565b82800160010185558215610e4c579182015b82811115610e4b578251825591602001919060010190610e30565b5b509050610e599190610e5d565b5090565b610e7f91905b80821115610e7b576000816000905550600101610e63565b5090565b9056fe4d6573736167652056616c756520646f6573206e6f74206d61746368207072697a6520616d6f756e742e5468652053656e646572206973206e6f7420616e2041646d696e206f6620616e7920436f6d7065746974696f6ea265627a7a72315820c36a5c3cf93cecf78dbfebbec3179fa6b8ff25b024bf5fda92b8227163ddfc7164736f6c634300050c0032",
  "source": "pragma solidity >=0.5.0 <0.6.0;\n\nimport \"./ownable.sol\";\n\ncontract MainCompetition is Ownable {\n\n    event NewCompetition (uint256 compId, string name);\n\n    // enum userType {Admin, Participant, Judge}\n    mapping(address => uint)  public addressToUserType;\n\n    // TO-DO: change to array? admin more than one Competition\n    // TO-DO: change state variables to not public\n    mapping(address => uint256) public adminToCompId;\n    mapping(uint256 => address) public compIdToAdmin;\n\n    struct Competition {\n        string name;\n        uint256 totalPrize;\n        bool isOpen;\n    }\n\n    Competition[] public competitions;\n\n    modifier isAdmin() {\n        require(addressToUserType[msg.sender] == 0, \"The Sender is not an Admin of any Competition\");\n        _;\n    }\n\n    modifier isParticipant() {\n        require(addressToUserType[msg.sender] == 1, \"The Sender is not an Participant of any Competition\");\n        _;\n    }\n\n    // modifier isParticipantOf (uint256 _CID, address _allegedParticipant) {\n    //     require(compIdToComp[_CID].participants[_allegedParticipant], \"The proposed address is not a participant in that competition\");\n    //     _;\n    // }\n\n    function _createComp (string memory _name, uint256 _totalPrize) internal {\n        uint id = competitions.push(Competition(_name, _totalPrize,false));\n        compIdToAdmin[id] = msg.sender;\n        emit NewCompetition(id, _name);\n\n\n    }\n\n    function selectUserType (string memory _userType) public {\n        if (keccak256(abi.encodePacked(_userType)) == keccak256(abi.encodePacked(\"Admin\"))) {\n            addressToUserType[msg.sender] = 1;\n        } else {\n            addressToUserType[msg.sender] = 2;\n        }\n    }\n\n    function createCompetition (string memory _name, uint256 _totalPrize) public payable isAdmin() {\n        require(msg.value == _totalPrize, \"Message Value does not match prize amount.\");\n        _createComp(_name, _totalPrize);\n    }\n\n    // // Ends Competition -- Rescricted to Admins and Only Admins of this Competition\n    // function endCompetition (uint256 _CID) public isAdminOf(_CID) {\n\n    // }\n\n    // function chooseWinner (uint256 _CID, address _winnerAddress) public isAdminOf(_CID) isParticipant()\n    // isParticipantOf(_CID, _winnerAddress) {\n\n    // }\n\n    // function joinCompetition (uint256 _CID) public payable isCompetition(_CID) {\n    //     if (compIdToComp[_CID].fee > 0) {\n    //         require(msg.value >= compIdToComp[_CID].fee, \"Value did not meet the competition fee\");\n    //     }\n    // }\n\n}\n",
  "sourcePath": "/Users/heathdaniel/Documents/GitHub/Gotham-DLT-Project/contracts/MainCompetition.sol",
  "compiler": {
    "name": "solc",
    "version": "0.5.12+commit.7709ece9.Emscripten.clang"
  },
  "schemaVersion": "3.0.19",
  "updatedAt": "2019-12-08T09:26:42.396Z",
  "networkType": "ethereum",
  "devdoc": {
    "methods": {
      "isOwner()": {
        "return": "true if `msg.sender` is the owner of the contract."
      },
      "owner()": {
        "return": "the address of the owner."
      },
      "renounceOwnership()": {
        "details": "Allows the current owner to relinquish control of the contract."
      },
      "transferOwnership(address)": {
        "details": "Allows the current owner to transfer control of the contract to a newOwner.",
        "params": {
          "newOwner": "The address to transfer ownership to."
        }
      }
    }
  },
  "userdoc": {
    "methods": {
      "renounceOwnership()": {
        "notice": "Renouncing to ownership will leave the contract without an owner. It will not be possible to call the functions with the `onlyOwner` modifier anymore."
      }
    }
  }
}